{
  "contractName": "Voting",
  "abi": [
    {
      "constant": true,
      "inputs": [],
      "name": "totalVotes",
      "outputs": [
        {
          "name": "",
          "type": "uint256"
        }
      ],
      "payable": false,
      "stateMutability": "view",
      "type": "function",
      "signature": "0x0d15fd77"
    },
    {
      "constant": true,
      "inputs": [],
      "name": "candidatesCount",
      "outputs": [
        {
          "name": "",
          "type": "uint256"
        }
      ],
      "payable": false,
      "stateMutability": "view",
      "type": "function",
      "signature": "0x2d35a8a2"
    },
    {
      "constant": true,
      "inputs": [
        {
          "name": "",
          "type": "uint256"
        }
      ],
      "name": "candidates",
      "outputs": [
        {
          "name": "id",
          "type": "uint256"
        },
        {
          "name": "name",
          "type": "string"
        },
        {
          "name": "party",
          "type": "string"
        },
        {
          "name": "photo",
          "type": "string"
        },
        {
          "name": "description",
          "type": "string"
        }
      ],
      "payable": false,
      "stateMutability": "view",
      "type": "function",
      "signature": "0x3477ee2e"
    },
    {
      "constant": true,
      "inputs": [],
      "name": "manager",
      "outputs": [
        {
          "name": "",
          "type": "address"
        }
      ],
      "payable": false,
      "stateMutability": "view",
      "type": "function",
      "signature": "0x481c6a75"
    },
    {
      "constant": true,
      "inputs": [],
      "name": "blankVotes",
      "outputs": [
        {
          "name": "",
          "type": "uint256"
        }
      ],
      "payable": false,
      "stateMutability": "view",
      "type": "function",
      "signature": "0x6a316c9d"
    },
    {
      "constant": true,
      "inputs": [
        {
          "name": "",
          "type": "uint256"
        }
      ],
      "name": "voteCandidate",
      "outputs": [
        {
          "name": "",
          "type": "uint256"
        }
      ],
      "payable": false,
      "stateMutability": "view",
      "type": "function",
      "signature": "0x8c08a4dc"
    },
    {
      "constant": true,
      "inputs": [
        {
          "name": "",
          "type": "address"
        }
      ],
      "name": "voters",
      "outputs": [
        {
          "name": "",
          "type": "bool"
        }
      ],
      "payable": false,
      "stateMutability": "view",
      "type": "function",
      "signature": "0xa3ec138d"
    },
    {
      "inputs": [],
      "payable": false,
      "stateMutability": "nonpayable",
      "type": "constructor",
      "signature": "constructor"
    },
    {
      "constant": true,
      "inputs": [],
      "name": "getCandidates",
      "outputs": [
        {
          "components": [
            {
              "name": "id",
              "type": "uint256"
            },
            {
              "name": "name",
              "type": "string"
            },
            {
              "name": "party",
              "type": "string"
            },
            {
              "name": "photo",
              "type": "string"
            },
            {
              "name": "description",
              "type": "string"
            }
          ],
          "name": "",
          "type": "tuple[]"
        }
      ],
      "payable": false,
      "stateMutability": "view",
      "type": "function",
      "signature": "0x06a49fce"
    },
    {
      "constant": false,
      "inputs": [
        {
          "name": "_name",
          "type": "string"
        },
        {
          "name": "_party",
          "type": "string"
        },
        {
          "name": "_photo",
          "type": "string"
        },
        {
          "name": "_description",
          "type": "string"
        }
      ],
      "name": "addCandidate",
      "outputs": [],
      "payable": true,
      "stateMutability": "payable",
      "type": "function",
      "signature": "0x42b03cc9"
    },
    {
      "constant": false,
      "inputs": [
        {
          "name": "_candidateId",
          "type": "uint256"
        }
      ],
      "name": "vote",
      "outputs": [],
      "payable": false,
      "stateMutability": "nonpayable",
      "type": "function",
      "signature": "0x0121b93f"
    }
  ],
  "bytecode": "0x60806040523480156200001157600080fd5b50600060068190555060006004819055506000600581905550336000806101000a81548173ffffffffffffffffffffffffffffffffffffffff021916908373ffffffffffffffffffffffffffffffffffffffff160217905550620001b46040805190810160405280600e81526020017f506564726f2053c3a16e6368657a0000000000000000000000000000000000008152506040805190810160405280600481526020017f50534f450000000000000000000000000000000000000000000000000000000081525060a060405190810160405280607a81526020017f68747470733a2f2f657374617469636f732e656c706572696f6469636f2e636f81526020017f6d2f7265736f75726365732f6a70672f302f302f706564726f2d73616e63686581526020017f7a2d7265636c616d612d67656e74652d7175652d61637564612d6c61732d757281526020017f6e61732d32382d612d313535343230323137323630302e6a70670000000000008152506101206040519081016040528060f2815260200162001b3d60f29139620007ca640100000000026401000000009004565b620002f26040805190810160405280600d81526020017f416c6265727420526976657261000000000000000000000000000000000000008152506040805190810160405280600a81526020017f436975646164616e6f7300000000000000000000000000000000000000000000815250608060405190810160405280604e81526020017f68747470733a2f2f6c6163726f6e69636164656c70616a617269746f2e636f6d81526020017f2f77702d636f6e74656e742f75706c6f6164732f323031392f30372f616c626581526020017f72742d726976657261312e6a70670000000000000000000000000000000000008152506040805190810160405280601581526020017f746869732069732061206465736372697074696f6e0000000000000000000000815250620007ca640100000000026401000000009004565b620004306040805190810160405280600c81526020017f5061626c6f2043617361646f00000000000000000000000000000000000000008152506040805190810160405280600f81526020017f5061727469646f20506f70756c61720000000000000000000000000000000000815250608060405190810160405280604b81526020017f68747470733a2f2f6c6f6f6b2e6f6b64696172696f2e636f6d2f696d672f323081526020017f31382f30372f32392f7061626c6f2d63617361646f2d6465737461636164612d81526020017f363535783336382e6a70670000000000000000000000000000000000000000008152506040805190810160405280601581526020017f746869732069732061206465736372697074696f6e0000000000000000000000815250620007ca640100000000026401000000009004565b620005486040805190810160405280600e81526020017f5061626c6f2049676c65736961730000000000000000000000000000000000008152506040805190810160405280600e81526020017f556e6964617320506f64656d6f73000000000000000000000000000000000000815250606060405190810160405280603781526020017f68747470733a2f2f7777772e6d65726361322e65732f77702d636f6e74656e7481526020017f2f75706c6f6164732f323031392f30352f70702e6a70670000000000000000008152506040805190810160405280601581526020017f746869732069732061206465736372697074696f6e0000000000000000000000815250620007ca640100000000026401000000009004565b620006866040805190810160405280601081526020017f53616e746961676f204162617363616c000000000000000000000000000000008152506040805190810160405280600381526020017f564f580000000000000000000000000000000000000000000000000000000000815250608060405190810160405280605b81526020017f68747470733a2f2f737461746963312e6162632e65732f6d656469612f65737081526020017f616e612f323031392f30312f30382f6162617363616c2d766f782d553330383681526020017f313136303130346341482d2d36323078333439406162632e6a706700000000008152506040805190810160405280601581526020017f746869732069732061206465736372697074696f6e0000000000000000000000815250620007ca640100000000026401000000009004565b620007c46040805190810160405280600e81526020017f566f746f20656e20626c616e636f0000000000000000000000000000000000008152506040805190810160405280600181526020017f2000000000000000000000000000000000000000000000000000000000000000815250608060405190810160405280604b81526020017f68747470733a2f2f666f746f7330302e6c616f70696e696f6e64656d7572636981526020017f612e65732f6d6d702f323031392f30332f31312f363930783237382f766f746f81526020017f2d626c616e636f2e6a70670000000000000000000000000000000000000000008152506040805190810160405280601581526020017f746869732069732061206465736372697074696f6e0000000000000000000000815250620007ca640100000000026401000000009004565b62000a0b565b6000809054906101000a900473ffffffffffffffffffffffffffffffffffffffff1673ffffffffffffffffffffffffffffffffffffffff163373ffffffffffffffffffffffffffffffffffffffff161415156200082657600080fd5b600660008154809291906001019190505550620008426200092c565b60a060405190810160405280600654815260200186815260200185815260200184815260200183815250905060038190806001815401808255809150509060018203906000526020600020906005020160009091929091909150600082015181600001556020820151816001019080519060200190620008c49291906200095c565b506040820151816002019080519060200190620008e39291906200095c565b506060820151816003019080519060200190620009029291906200095c565b506080820151816004019080519060200190620009219291906200095c565b505050505050505050565b60a06040519081016040528060008152602001606081526020016060815260200160608152602001606081525090565b828054600181600116156101000203166002900490600052602060002090601f016020900481019282601f106200099f57805160ff1916838001178555620009d0565b82800160010185558215620009d0579182015b82811115620009cf578251825591602001919060010190620009b2565b5b509050620009df9190620009e3565b5090565b62000a0891905b8082111562000a04576000816000905550600101620009ea565b5090565b90565b6111228062000a1b6000396000f3fe6080604052600436106100a4576000357c0100000000000000000000000000000000000000000000000000000000900463ffffffff1680630121b93f146100a957806306a49fce146100d25780630d15fd77146100fd5780632d35a8a2146101285780633477ee2e1461015357806342b03cc914610194578063481c6a75146101b05780636a316c9d146101db5780638c08a4dc14610206578063a3ec138d14610243575b600080fd5b3480156100b557600080fd5b506100d060048036036100cb9190810190610d41565b610280565b005b3480156100de57600080fd5b506100e76103a5565b6040516100f49190610ee1565b60405180910390f35b34801561010957600080fd5b50610112610697565b60405161011f9190610f1e565b60405180910390f35b34801561013457600080fd5b5061013d61069d565b60405161014a9190610f1e565b60405180910390f35b34801561015f57600080fd5b5061017a60048036036101759190810190610d41565b6106a3565b60405161018b959493929190610f39565b60405180910390f35b6101ae60048036036101a99190810190610c7e565b610948565b005b3480156101bc57600080fd5b506101c5610a9f565b6040516101d29190610ec6565b60405180910390f35b3480156101e757600080fd5b506101f0610ac4565b6040516101fd9190610f1e565b60405180910390f35b34801561021257600080fd5b5061022d60048036036102289190810190610d41565b610aca565b60405161023a9190610f1e565b60405180910390f35b34801561024f57600080fd5b5061026a60048036036102659190810190610c55565b610ae2565b6040516102779190610f03565b60405180910390f35b600160003373ffffffffffffffffffffffffffffffffffffffff1673ffffffffffffffffffffffffffffffffffffffff16815260200190815260200160002060009054906101000a900460ff161515156102d957600080fd5b6000811180156102eb57506006548111155b15156102f657600080fd5b60018060003373ffffffffffffffffffffffffffffffffffffffff1673ffffffffffffffffffffffffffffffffffffffff16815260200190815260200160002060006101000a81548160ff021916908315150217905550600460008154809291906001019190505550600681141561037f576005600081548092919060010191905055506103a2565b600160026000838152602001908152602001600020600082825401925050819055505b50565b60606003805480602002602001604051908101604052809291908181526020016000905b8282101561068e578382906000526020600020906005020160a0604051908101604052908160008201548152602001600182018054600181600116156101000203166002900480601f0160208091040260200160405190810160405280929190818152602001828054600181600116156101000203166002900480156104905780601f1061046557610100808354040283529160200191610490565b820191906000526020600020905b81548152906001019060200180831161047357829003601f168201915b50505050508152602001600282018054600181600116156101000203166002900480601f0160208091040260200160405190810160405280929190818152602001828054600181600116156101000203166002900480156105325780601f1061050757610100808354040283529160200191610532565b820191906000526020600020905b81548152906001019060200180831161051557829003601f168201915b50505050508152602001600382018054600181600116156101000203166002900480601f0160208091040260200160405190810160405280929190818152602001828054600181600116156101000203166002900480156105d45780601f106105a9576101008083540402835291602001916105d4565b820191906000526020600020905b8154815290600101906020018083116105b757829003601f168201915b50505050508152602001600482018054600181600116156101000203166002900480601f0160208091040260200160405190810160405280929190818152602001828054600181600116156101000203166002900480156106765780601f1061064b57610100808354040283529160200191610676565b820191906000526020600020905b81548152906001019060200180831161065957829003601f168201915b505050505081525050815260200190600101906103c9565b50505050905090565b60045481565b60065481565b6003818154811015156106b257fe5b9060005260206000209060050201600091509050806000015490806001018054600181600116156101000203166002900480601f0160208091040260200160405190810160405280929190818152602001828054600181600116156101000203166002900480156107645780601f1061073957610100808354040283529160200191610764565b820191906000526020600020905b81548152906001019060200180831161074757829003601f168201915b505050505090806002018054600181600116156101000203166002900480601f0160208091040260200160405190810160405280929190818152602001828054600181600116156101000203166002900480156108025780601f106107d757610100808354040283529160200191610802565b820191906000526020600020905b8154815290600101906020018083116107e557829003601f168201915b505050505090806003018054600181600116156101000203166002900480601f0160208091040260200160405190810160405280929190818152602001828054600181600116156101000203166002900480156108a05780601f10610875576101008083540402835291602001916108a0565b820191906000526020600020905b81548152906001019060200180831161088357829003601f168201915b505050505090806004018054600181600116156101000203166002900480601f01602080910402602001604051908101604052809291908181526020018280546001816001161561010002031660029004801561093e5780601f106109135761010080835404028352916020019161093e565b820191906000526020600020905b81548152906001019060200180831161092157829003601f168201915b5050505050905085565b6000809054906101000a900473ffffffffffffffffffffffffffffffffffffffff1673ffffffffffffffffffffffffffffffffffffffff163373ffffffffffffffffffffffffffffffffffffffff161415156109a357600080fd5b6006600081548092919060010191905055506109bd610b02565b60a060405190810160405280600654815260200186815260200185815260200184815260200183815250905060038190806001815401808255809150509060018203906000526020600020906005020160009091929091909150600082015181600001556020820151816001019080519060200190610a3d929190610b32565b506040820151816002019080519060200190610a5a929190610b32565b506060820151816003019080519060200190610a77929190610b32565b506080820151816004019080519060200190610a94929190610b32565b505050505050505050565b6000809054906101000a900473ffffffffffffffffffffffffffffffffffffffff1681565b60055481565b60026020528060005260406000206000915090505481565b60016020528060005260406000206000915054906101000a900460ff1681565b60a06040519081016040528060008152602001606081526020016060815260200160608152602001606081525090565b828054600181600116156101000203166002900490600052602060002090601f016020900481019282601f10610b7357805160ff1916838001178555610ba1565b82800160010185558215610ba1579182015b82811115610ba0578251825591602001919060010190610b85565b5b509050610bae9190610bb2565b5090565b610bd491905b80821115610bd0576000816000905550600101610bb8565b5090565b90565b6000610be38235611079565b905092915050565b600082601f8301121515610bfe57600080fd5b8135610c11610c0c82610fd5565b610fa8565b91508082526020830160208301858383011115610c2d57600080fd5b610c38838284611095565b50505092915050565b6000610c4d823561108b565b905092915050565b600060208284031215610c6757600080fd5b6000610c7584828501610bd7565b91505092915050565b60008060008060808587031215610c9457600080fd5b600085013567ffffffffffffffff811115610cae57600080fd5b610cba87828801610beb565b945050602085013567ffffffffffffffff811115610cd757600080fd5b610ce387828801610beb565b935050604085013567ffffffffffffffff811115610d0057600080fd5b610d0c87828801610beb565b925050606085013567ffffffffffffffff811115610d2957600080fd5b610d3587828801610beb565b91505092959194509250565b600060208284031215610d5357600080fd5b6000610d6184828501610c41565b91505092915050565b610d7381611031565b82525050565b6000610d848261100e565b80845260208401935083602082028501610d9d85611001565b60005b84811015610dd6578383038852610db8838351610e2c565b9250610dc382611024565b9150602088019750600181019050610da0565b508196508694505050505092915050565b610df081611043565b82525050565b6000610e0182611019565b808452610e158160208601602086016110a4565b610e1e816110d7565b602085010191505092915050565b600060a083016000830151610e446000860182610eb7565b5060208301518482036020860152610e5c8282610df6565b91505060408301518482036040860152610e768282610df6565b91505060608301518482036060860152610e908282610df6565b91505060808301518482036080860152610eaa8282610df6565b9150508091505092915050565b610ec08161106f565b82525050565b6000602082019050610edb6000830184610d6a565b92915050565b60006020820190508181036000830152610efb8184610d79565b905092915050565b6000602082019050610f186000830184610de7565b92915050565b6000602082019050610f336000830184610eb7565b92915050565b600060a082019050610f4e6000830188610eb7565b8181036020830152610f608187610df6565b90508181036040830152610f748186610df6565b90508181036060830152610f888185610df6565b90508181036080830152610f9c8184610df6565b90509695505050505050565b6000604051905081810181811067ffffffffffffffff82111715610fcb57600080fd5b8060405250919050565b600067ffffffffffffffff821115610fec57600080fd5b601f19601f8301169050602081019050919050565b6000602082019050919050565b600081519050919050565b600081519050919050565b6000602082019050919050565b600061103c8261104f565b9050919050565b60008115159050919050565b600073ffffffffffffffffffffffffffffffffffffffff82169050919050565b6000819050919050565b60006110848261104f565b9050919050565b6000819050919050565b82818337600083830152505050565b60005b838110156110c25780820151818401526020810190506110a7565b838111156110d1576000848401525b50505050565b6000601f19601f830116905091905056fea265627a7a72305820b2c5abeeb81112f2ce2742fe09931714c1b276218ccc2529ddc71e8d76364afb6c6578706572696d656e74616cf500375061727469646f20536f6369616c69737461204f627265726f2045737061c3b16f6c202850534f4529207365656b7320746f206368616e6765207468652065636f6e6f6d696320737472756374757265206f66207468652061637475616c20676f7665726e6d656e74206279206170706c79696e67206120676c6f62616c2074617820726564756374696f6e2e20496e207465726d73206f66206d6967726174696f6e20706f6c69636965732c2050534f452077616e747320746f2067756172616e746565207468652066756c6c20696e746567726174696f6e206f6620616e79206c6567616c206d696772616e742e2e2e",
  "source": "pragma solidity ^0.5.0;\npragma experimental ABIEncoderV2;\n\ncontract Voting {\n    \n  address public manager;        \n\n  // struct of type candidate. Of couse we can add more feautures but I think this is fine\n  struct Candidate {\n    uint id;\n    string name;\n    string party;\n    string photo;\n    string description;\n  }\n  \n  // it's better to work with mappings instead of arrays. With mappings we have constant time complexity\n  // no matter how many voters and votes per candidate are. Think of these like hash tables, where we\n  // only need to perform a look up and these mappings don't loop the entire mapping.\n\n  mapping(address => bool) public voters;\n  mapping(uint => uint) public voteCandidate;\n  \n  Candidate[] public candidates;\n  uint public totalVotes;\n  uint public blankVotes;\n \n \n \n  uint public candidatesCount;\n  \n  // this modifier was intentionally created to restrict the access to certain methods like add candidate\n  // so only the manager of the contract can add more candidades and not any people\n  modifier restricted () {\n      require(msg.sender == manager);\n      _;\n  }\n\n\n  constructor() public {\n\n    candidatesCount = 0;\n    totalVotes = 0;\n    blankVotes = 0;\n    manager = msg.sender;\n    \n    // adding all the candidates available (5 persons and 1 vote blank option)\n    // for images it would be a better option to store them in our own server but I just want to test this\n    // the electoral programme will be loaded from another resource rather than include it here in the constructor.\n    addCandidate(\"Pedro Sánchez\", \"PSOE\", \"https://estaticos.elperiodico.com/resources/jpg/0/0/pedro-sanchez-reclama-gente-que-acuda-las-urnas-28-a-1554202172600.jpg\",\n    \"Partido Socialista Obrero Español (PSOE) seeks to change the economic structure of the actual government by applying a global tax reduction. In terms of migration policies, PSOE wants to guarantee the full integration of any legal migrant...\");\n    addCandidate(\"Albert Rivera\", \"Ciudadanos\", \"https://lacronicadelpajarito.com/wp-content/uploads/2019/07/albert-rivera1.jpg\", \"this is a description\");\n    addCandidate(\"Pablo Casado\", \"Partido Popular\", \"https://look.okdiario.com/img/2018/07/29/pablo-casado-destacada-655x368.jpg\", \"this is a description\");\n    addCandidate(\"Pablo Iglesias\", \"Unidas Podemos\", \"https://www.merca2.es/wp-content/uploads/2019/05/pp.jpg\", \"this is a description\");\n    addCandidate(\"Santiago Abascal\", \"VOX\", \"https://static1.abc.es/media/espana/2019/01/08/abascal-vox-U30861160104cAH--620x349@abc.jpg\", \"this is a description\");\n    addCandidate(\"Voto en blanco\", \" \", \"https://fotos00.laopiniondemurcia.es/mmp/2019/03/11/690x278/voto-blanco.jpg\", \"this is a description\");\n  }\n  \n  // This method returns the array of candidades, this array is small so there is no problem with this approach\n  function getCandidates() public view returns (Candidate[] memory) {\n        \n        return candidates;\n        \n    }\n\n  function addCandidate(string memory _name, string memory _party, string memory _photo, string memory _description) public payable restricted {\n      \n    candidatesCount++;\n      \n    Candidate memory newCandidate = Candidate({\n        id: candidatesCount,\n        name: _name,\n        party: _party,\n        photo: _photo,\n        description: _description\n    }); \n    \n      \n    candidates.push(newCandidate);\n  }\n  \n  // the vote function\n  function vote(uint _candidateId) public {\n      \n      // this checks if a person has already voted\n      require(!voters[msg.sender]);\n      \n      // this checks if the option is valid (it has to be greater than 0 and less or equal to 6)\n      require(_candidateId > 0 && _candidateId <= candidatesCount);\n      \n      // this stores the voter with its address in the mapping\n      voters[msg.sender] = true;\n      \n      // increments the total number of votes\n      totalVotes++;\n      \n      if(_candidateId == 6) {\n          blankVotes++;\n      } else {\n      \n      voteCandidate[_candidateId] += 1;\n      \n      }\n  }\n \n}",
  "sourcePath": "/Users/juanluna/Desktop/proyectos personales/truffle/contracts/Voting.sol",
  "compiler": {
    "name": "solc",
    "version": "0.5.0+commit.1d4f565a.Emscripten.clang"
  },
  "schemaVersion": "3.0.2",
  "updatedAt": "2019-07-07T20:26:39.607Z",
  "devdoc": {
    "methods": {}
  },
  "userdoc": {
    "methods": {}
  }
}